:200000000C944A000C9467000C9467000C9467000C9467000C9430010C9467000C946700FB
:200020000C9467000C9467000C9467000C9467000C9467000C9467000C9467000C94670088
:200040000C9467000C9467000C9467000C9467000C9469000C9467000C9467000C94670066
:200060000C9467000C9467000C9467000C9467000C9467000C9467000C946700D680018276
:20008000F4A402C62D94ABC281CAF7C4709800C800E0818211241FBECFEFD0E1DEBFCDBF6F
:2000A00012E0A0E0B1E0E8E2FFE002C005900D92A839B107D9F713E0A8E9B2E001C01D92AF
:2000C000A131B107E1F70E9492000C9492070C9400001F920F920FB60F9211248F939F9370
:2000E00081E090E00197F1F79F918F910F900FBE0F901F9018951F93182F0E944B038091FE
:200100009802E82FF0E0EA5FFE4F10831D3031F0843620F48F5F8093980202C01092980260
:200120001F910895CF93DF930E94340388EE93E02CE231E0F9013197F1F70197D9F70E9409
:20014000DD0288EE93E02CE231E0F9013197F1F70197D9F77894CCE2D1E080E091E00E94C8
:20016000530388E893E1FE013197F1F70197D9F7F4CF2C989EBD0DB407FEFDCF8EBD0DB4AE
:2001800007FEFDCF2C9A08952C989EBD0DB407FEFDCF3EB58EBD0DB407FEFDCF2EB5932F05
:2001A00080E02C9A30E0282B392BC90108950F931F930CE610E0F80120812D7F20830E942A
:2001C000B900F8018081826080831F910F910895CF93DF93A82FB0E0FD0183E0EE0FFF1FE3
:2001E0008A95E1F7E253FE4F77836683FD0153E0EE0FFF1F5A95E1F7EE52FE4FC081D18170
:20020000209719F440E050E010C088819981FD0143E0EE0FFF1F4A95E1F7E053FE4F4081A3
:200220005181409550954823592333E0AA0FBB1F3A95E1F7FD01E053FE4F808191818623C4
:200240009723A253BE4F2D913C91822B932B842B952B998388830E94D700DF91CF91089570
:2002600078941F920F920FB60F9211249F92AF92BF92CF92DF92EF92FF920F931F932F93C8
:200280003F934F935F936F937F938F939F93AF93BF93CF93DF93EF93FF931999FAC0809157
:2002A0006C008D7F80936C001091100352E0952EC3E2D0E041E0E42EF12CDD24D39431E27E
:2002C000B32E23E0A22E94E0C92E9BBA2C981EBC0DB407FEFDCF2C9A0EB507FFD0C090913A
:2002E0000203923039F1923018F0933081F51FC080910503833011F020E004C020E01F3F3C
:2003000009F021E08091060390E08C9FF0018D9FF00D9C9FF00D1124E454FD4F81A192A1CE
:20032000892BA9F4222399F4D092020312C0C09202030FC0A0920203209105038091040333
:20034000281738F4243228F49093020302C01092020380910203823009F45FC0833020F484
:20036000813009F07BC007C0833009F466C0843009F074C067C080E090EB0E94C400382F4B
:200380001827209105032223D9F4823270F08091060390E08C9FF0018D9FF00D9C9FF00D38
:2003A0001124E454FD4FB0821AC08091060390E08C9FF0018D9FF00D9C9FF00D11240CC070
:2003C0008091060390E08C9FF0018D9FF00D9C9FF00D1124E20FF11DE454FD4F30832F5F1D
:2003E0002093050340910603842F90E08C9FF0018D9FF00D9C9FF00D1124E454FD4F80810E
:20040000992787FD909530E0281739073CF1F2A2E1A24D25409306031FC0E0910503F0E02A
:20042000E756FD4F808190E0986B0E94B900809105038F5F8093050311C08AEA98EB0E94D8
:20044000B9000CC01092030381E892E80E94B9008AEA98EB0E94B900109202038091020322
:20046000882369F4109205031092040381E89AEC0E94B90083E89AEC0E94B90010E004791E
:2004800009F023CF1093100380916C00826080936C00FF91EF91DF91CF91BF91AF919F913D
:2004A0008F917F916F915F914F913F912F911F910F91FF90EF90DF90CF90BF90AF909F90C3
:2004C0000F900FBE0F901F9018950F931F930CE610E0F80180818D7F808381E092E80E94F9
:2004E000B90080919B028B5F809304031092050382E0809302038AEA98EB0E94B9008AEAA7
:2005000098EB0E94B90081E292E80E94B900F8018081826080831F910F91089580910203E3
:20052000882301F580916C008D7F80936C0080E090E00E94C40020916C00226020936C001E
:2005400090FF02C088EC05C080911602882321F0815080931602089580910303813011F4C6
:200560000E9465020895982F80910303882311F083E0089560939B0290939C026927609575
:2005800060939D0281E08093030380E8089540910703242F30E083E290E0289FF001299FB7
:2005A000F00D389FF00D1124E454FD4F12A211A281E04827409307030895CF93DF932C9A66
:2005C000249A259A279A2C9A249A269881E58CBD8DE28093990284ED80939A021092060304
:2005E000109207038DE294E9909309038093080387EF94EC90930B0380930A0380E798E9E7
:2006000090930D0380930C0386ED90E890930F0380930E03C0E0D0E0FE01EE0FFF1FE4589B
:20062000FF4F859194910E94B9002196CC30D10599F78091680082608093680080E090E017
:200640000E94C40082E08BBB81E89AEC0E94B90083E89AEC0E94B90080916C008260809384
:200660006C00DF91CF9108951092C5008DE48093C400E1ECF0E088E1808386E08093C200AE
:2006800080818068808308958091C00087FFFCCF8091C6000895982F8091C00085FFFCCF54
:2006A0009093C6000895FC0107C08091C00085FFFCCF9093C600319690819923B1F708950E
:2006C0000F931F93182F062F8F3110F082E012C080910303882311F083E00CC02EE932E03B
:2006E000C901BA01412F50E00E947707802F612F0E94B3021F910F910895FC011286118606
:20070000148613861586168617860895FC0112861186148613861586168617860895CF9303
:20072000DF93EC0120E030E002C02F5F3F4FF901E95EFD4F80818823C1F790E008C0FE0144
:20074000EA0FFB1FA60FB71F8C9181879F5FA92FB0E0A217B30798F39C858B858D839E8310
:20076000C90145E0969587954A95E1F79A8789872F713070232B19F001969A878987DF918C
:20078000CF910895AC01DC01FB0189E001900D928150E1F7CA010895CF93DF93DC01EC018E
:2007A000AC01495E5F4F1B968D919C911C97FD01E80FF91F21852A8301961C969C938E938F
:2007C0001B972196C417D50771F7DF91CF910895FC0114820895FC01658346830895DF9337
:2007E000FC01ADB7BEB711978C9182838383DF910895FC0185858295807F9685892B878350
:2008000097859295907F8185892B80870895CF93DF93DC01EC01AC01495E5F4F1B968D91B9
:200820009C911C97FD01E80FF91F21852A8301961C969C938E931B972196C417D50771F757
:200840001D962C911D972295207F1E968C911E97282B17962C9317971F969C911F9792956C
:20086000907F19968C911997892B18968C93189715969C91159714968C91149715968C93FD
:20088000159716969C93169714961C921497EDB7FEB73197808112968C93129713968C93C7
:2008A00013978EE78C9311968C93119719968C9319972E3719F021E030E006C085E51A96AF
:2008C0008C931A9722E030E0FD01E20FF31F17968C91179781872F5F3F4F18969C9118970F
:2008E0008C91981739F4FD01E20FF31F85E581872F5F3F4FFD01E20FF31F18968C911897F5
:2009000081872F5F3F4F15969C9115978C91981739F4FD01E20FF31F85E581872F5F3F4FA7
:20092000FD01E20FF31F15968C91159781872F5F3F4F16969C9116978C91981739F4FD01A1
:20094000E20FF31F85E581872F5F3F4FFD01E20FF31F16968C91169781872F5F3F4F1496C1
:200960009C9114978C91981739F4FD01E20FF31F85E581872F5F3F4FFD01E20FF31F14966C
:200980008C91149781872F5F3F4F12969C9112978C91981739F4FD01E20FF31F85E5818781
:2009A0002F5F3F4FFD01E20FF31F12968C91129781872F5F3F4F13969C9113978C9198173C
:2009C00039F4FD01E20FF31F85E581872F5F3F4FFD01E20FF31F13968C911397818711963B
:2009E0008C918287DF91CF910895CF92DF92EF92FF920F931F93DF93CF93CDB7DEB729977F
:200A00000FB6F894DEBF0FBECDBF6C01E982FA820B831C832D833E834F83588769878A85ED
:200A2000F601808381878B85853519F422E030E002C021E030E0DE011A96FD01E20FF31F68
:200A40008081F601878382872F5F3F4FA20FB31F8C91853511F42F5F3F4FDE011A96FD0167
:200A6000E20FF31F8081F601808783872F5F3F4FA20FB31F8C91853511F42F5F3F4FDE01F4
:200A80001A96FD01E20FF31F8081F601858384872F5F3F4FA20FB31F8C91853511F42F5F91
:200AA0003F4FDE011A96FD01E20FF31F8081F60186838587A9014F5F5F4FA40FB51F8C9161
:200AC000853511F44F5F5F4FCE010A96FC01E40FF51F2081F601248326879A012F5F3F4FE5
:200AE000D60146E050E0BC0118C0FB01E20FF31F8081853511F42F5F3F4FFB01E20FF31F5A
:200B00008081F601E90FF11D82831F968C931F974F5F5F4F2F5F3F4F1196942F9650F60189
:200B20008481981710F3FB01E20FF31F8081853511F42F5F3F4FDE011A96FD01E20FF31F93
:200B40008081F6018283E40FF51F81874F5F5F4F2F5F3F4FA20FB31F8C91853511F42F5F24
:200B60003F4FDE011A96FD01E20FF31F8081F6018383E40FF51F8187F9013196AE0FBF1FEE
:200B80008C91853509F43196EC0FFD1F8285F60181834C0D5D1DFA01828729960FB6F894BA
:200BA000DEBF0FBECDBFCF91DF911F910F91FF90EF90DF90CF9008950F931F93DF93CF937E
:200BC000CDB7DEB729970FB6F894DEBF0FBECDBF402F50E0FE01319780819181907048171D
:200BE000590711F020E007C020E0812F90E08417950709F421E0822F29960FB6F894DEBF1A
:200C00000FBECDBFCF91DF911F910F9108950F931F93DF93CF93CDB7DEB7C85CD0400FB684
:200C2000F894DEBF0FBECDBF8C018091070390E023E230E0829FB001839F700D929F700DE6
:200C40001124FB01E454FD4F81A18130A1F54081842F8150843678F59B0121543D4FCE019E
:200C60000196B90150E00E94770790E0E981FA8180818E3709F491E020E0AE01415050407A
:200C800016C0D801A20FB11DE981FA81808119968C93E981FA8180818E3741F490E0DA0147
:200CA000ED91FC918081853509F491E02F5F992341F70E94C702C853DF4F0FB6F894DEBFDC
:200CC0000FBECDBFCF91DF911F910F910895FC01808191810E9407060895EF92FF920F93EE
:200CE0001F938C017B01FB01808191810E940706F70160817181C80149E050E00E94800765
:200D0000C8011F910F91FF90EF900895AB0190E001C09F5FFA01E90FF11D81858823C9F7C2
:200D2000475F5F4F892F6EEE0E9460030E948E020895EF92FF920F931F93DF93CF93CDB7B9
:200D4000DEB729970FB6F894DEBF0FBECDBFFC01E982FA820B831C832D833E834F835887C4
:200D60006987808191819C01AF014E5F5F4F89E0DA010D90AD01D9010D929D018150C1F799
:200D800060817181CF010E94860629960FB6F894DEBF0FBECDBFCF91DF911F910F91FF90CD
:200DA000EF900895CF92DF92EF92FF920F931F93DF93CF93CDB7DEB76D970FB6F894DEBF00
:200DC0000FBECDBF6C01CE010196BE016D5E7F4F0E946D06C601E980FA800B811C812D81F9
:200DE0003E814F81588569850E94F504F601868190E064E0959587956A95E1F70197E1F5C1
:200E00004781DE011A9689E001900D928150E1F75D858C85282F30E0FE0131978081918105
:200E200090702817390741F5852F90E08217930719F518C080EFF601878303C04F5FF601E8
:200E40004783F6014581368135834683CE014396E080F180028113812481578160850E943F
:200E600099060AC0842F90E054E0959587955A95E1F78F3019F7DECF6D960FB6F894DEBF38
:200E80000FBECDBFCF91DF911F910F91FF90EF90DF90CF900895AF92BF92CF92DF92EF927B
:200EA000FF920F931F93DF93CF93CDB7DEB72B970FB6F894DEBF0FBECDBF6C0167E172E050
:200EC0000E948F035E010894A11CB11CC6010E940704C501F601E080F1800281138124819B
:200EE00035814681578160850E949906EFCFFB01DC0102C001900D9241505040D8F7089561
:200F00006817790768F4FB01DC01E40FF51FA40FB51F02C002900E9241505040D8F708958E
:200F20000C947707F894FFCF547269616C000000000000000000000000000000000000003D
:200F4000000000000000000000000000000000000000000000000000000000000000000091
:200F6000000000000000000000000000000000000000000000000000000000000000000071
:200F8000000000000000000000000000000000000000000000000000000000000000000051
:200FA000000000000000000000000000000000000000000000000000000000000000000031
:200FC000000000000000000000000000000000000000000000000000000000000000000011
:200FE00000000000000000000000000000000000000000000000008030000E0310000080A0
:201000000F000E03060000A0FF0F0000F40400C6FF0000000200009807000C0300000098F7
:20102000F0000C037000009018000803080000900700080305000090E000080320001074C0
:2010400064010F795A5A5A5A5A5A5A5A5A5A5A5A5A5A5A5A5A5A5A5A5A5A5A5A5A5A5A5ACB
:201060005A5A5A5A5A5A5A5A5A5A5A5A5A5A5A5A5A5A5A5A5A5A5A5A5A5A5A5A5A5A5A5A30
:201080005A5A5A5A5A5A5A5A5A5A5A5A5A5A5A5A5A5A5A5A5A5A5A5A5A5A5A5A5A5A5A5A10
:2010A0005A5A5A5A5A5A5A5A5A5A5A5A5A5A5A5A5A5A5A5A5A5A5A5A5A5A5A5A5A7E4C0034
:2010C000FFFFFFFFFFFFFFFFFFFFFFFFFFFFFFFFFFFFFFFFFFFFFFFFFFFFFFFFFFFFFFFF30
:2010E000FFFFFFFFFFFFFFFFFFFFFFFFFFFFFFFFFFFFFFFFFFFFFFFFFFFFFFFFFFFFFFFF10
:2011000009F0B2C00FC0903739F0983709F0ACC004C028E030E00AC0106114FD146020E1D4
:2011200030E004C014FD166020E132E017FF08C0F601608171818281938144E050E008C066
:20114000F60180819181BC0180E090E042E050E0C40ED51EAE014F5F5F4F0E940B0DE82E06
:201160005889E51A8FE7F82EF122F6FE0BC08EEFF822E91438F4F4FE07C0F2FC05C09FEE68
:20118000F92202C01E2D01C0192DF4FE0DC0FE01EE0DF11D8081803319F4E9EEFE2208C0D9
:2011A0001F5FF2FE05C003C08F2D867809F01F5F0F2DF3FC14C0F0FE0FC0181510F09E2C55
:2011C0000BC09E2C980C911A182D06C080E290E0B3010E94800C1F5F1815C0F304C018151D
:2011E00010F4811A01C0882404FF0FC080E390E0B3010E94800C02FF1DC001FD03C088E74E
:2012000090E00EC088E590E00BC0802F867891F001FF02C08BE201C080E2F7FC8DE290E096
:20122000B3010E94800C06C080E390E0B3010E94800C9A94E914C0F3EA94E1E0F0E0EC0F69
:20124000FD1FEE0DF11D808190E0B3010E94800CEE2091F706C080E290E0B3010E94800C06
:201260008A948820C1F799CCF30166817781CB016196E2E10C946E0B5058BB27AA270ED0E0
:2012800070C161D130F066D120F031F49F3F11F41EF456C10EF4E095E7FB4CC1E92F72D192
:2012A00080F3BA17620773078407950718F071F49EF58AC10EF4E0950B2EBA2FA02D0B0123
:2012C000B90190010C01CA01A0011124FF27591B99F0593F50F4503E68F11A16F040A22FFE
:2012E000232F342F4427585FF3CF469537952795A795F0405395C9F77EF41F16BA0B620B05
:20130000730B840BBAF09150A1F0FF0FBB1F661F771F881FC2F70EC0BA0F621F731F841FF4
:2013200048F4879577956795B795F7959E3F08F0B3CF9395880F08F09927EE0F9795879562
:201340000895D4D008F481E008950CD00AC102D140F0F9D030F021F45F3F19F0EBC05111F6
:2013600034C1EEC00FD198F39923C9F35523B1F3951B550BBB27AA2762177307840738F062
:201380009F5F5F4F220F331F441FAA1FA9F333D00E2E3AF0E0E830D091505040E695001C1D
:2013A000CAF729D0FE2F27D0660F771F881FBB1F261737074807AB07B0E809F0BB0B802D43
:2013C000BF01FF2793585F4F2AF09E3F510568F0B1C0FBC05F3FECF3983EDCF38695779574
:2013E0006795B795F7959F5FC9F7880F911D9695879597F90895E1E0660F771F881FBB1F55
:20140000621773078407BA0720F0621B730B840BBA0BEE1F88F7E0950895BCD088F09F5796
:2014200090F0B92F9927B751A0F0D1F0660F771F881F991F1AF0BA95C9F712C0B13081F084
:20144000C3D0B1E00895C0C0672F782F8827B85F39F0B93FCCF3869577956795B395D9F72D
:201460003EF490958095709561957F4F8F4F9F4F0895E89409C097FB3EF490958095709586
:2014800061957F4F8F4F9F4F9923A9F0F92F96E9BB279395F695879577956795B795F111B9
:2014A000F8CFFAF4BB0F11F460FF1BC06F5F7F4F8F4F9F4F16C0882311F096E911C077239A
:2014C00021F09EE8872F762F05C0662371F096E8862F70E060E02AF09A95660F771F881FAD
:2014E000DAF7880F9695879597F90895990F0008550FAA0BE0E8FEEF16161706E807F9075A
:20150000C0F012161306E407F50798F0621B730B840B950B39F40A2661F0232B242B252BA6
:2015200021F408950A2609F4A140A6958FEF811D811D089597F99F6780E870E060E008952E
:201540009FEF80EC089500240A941616170618060906089500240A941216130614060506F7
:201560000895092E0394000C11F4882352F0BB0F40F4BF2B11F460FF04C06F5F7F4F8F4F78
:201580009F4F089557FD9058440F551F59F05F3F71F04795880F97FB991F61F09F3F79F020
:2015A00087950895121613061406551FF2CF4695F1DF08C0161617061806991FF1CF869575
:2015C0007105610508940895E894BB2766277727CB0197F908958ADF08F48FEF08950BD019
:2015E000C0CFB1DF28F0B6DF18F0952309F0A2CFA7CF1124EACFC6DFA0F3959FD1F3950FBD
:2016000050E0551F629FF001729FBB27F00DB11D639FAA27F00DB11DAA1F649F6627B00DC2
:20162000A11D661F829F2227B00DA11D621F739FB00DA11D621F839FA00D611D221F749F52
:201640003327A00D611D231F849F600D211D822F762F6A2F11249F5750408AF0E1F0882355
:201660004AF0EE0FFF1FBB1F661F771F881F91505040A9F79E3F510570F05CCFA6CF5F3F97
:20168000ECF3983EDCF3869577956795B795F795E7959F5FC1F7FE2B880F911D96958795E4
:2016A00097F908952F923F924F925F926F927F928F929F92AF92BF92CF92DF92EF92FF92BF
:2016C0000F931F93CF93DF93CDB7DEB7CA1BDB0B0FB6F894DEBF0FBECDBF09942A883988A7
:2016E00048885F846E847D848C849B84AA84B984C884DF80EE80FD800C811B81AA81B98186
:20170000CE0FD11D0FB6F894DEBF0FBECDBFED010895283008F027E03327DA01990F311DAA
:2017200087FD916000966105710539F432602E5F3D9330E32A95E1F708959F3F30F08038A9
:201740007105610509F03C5F3C5F3D93913008F08068911DDF93CF931F930F93FF92EF9225
:20176000192F987F9695E92F96959695E90FFF27E252FF4F99273327EE24FF24A701E701F2
:2017800005900894079428F4360FE71EF81E491F511D660F771F881F991F0694A1F70590FA
:2017A000079428F4E70EF81E491F561FC11D770F881F991F661F0694A1F70590079428F4C4
:2017C000F80E491F561FC71FD11D880F991F661F771F0694A1F70590079420F4490F561FA5
:2017E000C71FD81F990F661F771F881F0694A9F784911095177041F0D695C7955795479567
:20180000F794E7941A95C1F7E4E8F0E068941590159135916591959105907FE27395E1189F
:20182000F10A430B560BC90BD009C0F7E10CF11E431F561FC91FD01D7EF4703311F48A95B9
:20184000E6CFE894015030F0080F0AF40027021708F4202F2395022F7A3328F079E37D932C
:201860002A95E9F710C07D932A9589F6069497956795379517951794E118F10A430B560B23
:20188000C90BD00998F023957E9173957A3308F070E37C932013B8F77E9170617D9330F04B
:2018A000839571E37D9370E32A95E1F71124EF90FF900F911F91CF91DF91992787FD9095F6
:2018C0000895FC010590615070400110D8F7809590958E0F9F1F0895FB01DC018D910190DE
:2018E00080190110D9F3990B0895FC016150704001900110D8F7809590958E0F9F1F089530
:201900000F931F93CF93DF938C01EB018B8181FF1BC082FF0DC02E813F818C819D81281798
:20192000390764F4E881F9810193F983E88306C0E885F985802F0995892B31F48E819F81AB
:2019400001969F838E8302C00FEF1FEFC801DF91CF911F910F910895A0E0B0E0E2EBFCE0B0
:201960000C94620BFE013596619171918091740490917504AF010E94B5052096E2E00C9455
:201980007E0B0F931F93CF93DF938C01E0917404F0917504838181FF21C0C0E0D0E00DC0A4
:2019A000E0917404F091750420853185BF01F9010995892B11F0CFEFDFEFF80181918F01B5
:2019C000882371F7E0917404F0917504208531858AE0BF01F9010995892B11F0CFEFDFEFB3
:2019E000CE01DF91CF911F910F910895A0E0B0E0ECEFFCE00C94620BFE01359661917191C9
:201A00008091720490917304AF010E94ED0E2096E2E00C947E0BFA01AA27283051F1203102
:201A200081F1E8946F936E7F6E5F7F4F8F4F9F4FAF4FB1E03ED0B4E03CD0670F781F891F70
:201A40009A1FA11D680F791F8A1F911DA11D6A0F711D811D911DA11D20D009F468943F9121
:201A60002AE0269F11243019305D3193DEF6CF010895462F4770405D4193B3E00FD0C9F7B8
:201A8000F6CF462F4F70405D4A3318F0495D31FD4052419302D0A9F7EACFB4E0A6959795CB
:201AA000879577956795BA95C9F700976105710508959B01AC010A2E069457954795379534
:201AC0002795BA95C9F7620F731F841F951FA01D0895FC0120FD08C023FD05C022FF02C0DD
:201AE00073836283518340830895EF92FF920F931F9344FF02C033E011C046FF02C034E06D
:201B00000DC0DB01FC01AA0FBB1FEE1FFF1F1094D1F76A0F7B1F8E1F9F1F31E0660F771F5B
:201B2000881F991F3150D1F77B018C01E20EF11C011D111DA8019701B701CA011F910F9197
:201B4000FF90EF9008950F931F93CF93DF938C01C8010E941110EC0197FD08C00E94FE0FA1
:201B6000892BB1F7CE01B8010E945310CE01DF91CF911F910F910895A0E0B0E0E2ECFDE035
:201B80000C945A0BEC01C62E5A01122F0E941110AC018B3219F08D3251F41068CA9409F4B6
:201BA0006DC0CE010E941110AC0197FD67C06DEFD62ED1228D2D807301F54033F1F4CA9452
:201BC00009F447C0CE010E941110AC0197FD41C082E0D82A483711F0483559F480E4D82A19
:201BE000CA94B9F1CE010E941110AC0199232CF430C0D6FC02C080E1D82AEE24FF2487011E
:201C0000242F2053283088F0D4FC09C02A3068F0D6FE05C02F7D822F8151863028F0CA0182
:201C2000BE010E94531012C02750C801B7014D2D0E94750D7B018C0182E0D82ACA9461F05C
:201C4000CE010E941110AC0197FFDACFD1FC04C015C0EE24FF248701D7FE08C0109500950C
:201C6000F094E094E11CF11C011D111DC501B801A7012D2D0E94690D81E001C080E0CDB777
:201C8000DEB7EAE00C94760BA0E2B0E0EAE4FEE00C94560B6C01A62E8A017901FE013196F9
:201CA00080E2DF011D928A95E9F770E030E060E040E050E04F01A1E0B0E0F6018381F701F0
:201CC00083FD259183FF21917F01222309F47EC02E3519F44115510569F1872F90E0841763
:201CE000950744F42D3551F12D3221F4332329F431E021C0332309F4622F322F832F869581
:201D000086958695F401E80FF11D832F87703D0102C0660C771C8A95E2F72081262920835A
:201D2000361711F430E007C0361710F43F5FE6CF3150E4CF71E04F5F5F4FBFCF332319F008
:201D40008E8180628E83772359F0FE0131969E012F5D3F4F808180958193E217F307D1F73A
:201D6000BB24B3944E010894811C911CC6010E941110AC0197FD22C0869586958695F40115
:201D8000E80FF11D808190E09A012770307002C0959587952A95E2F780FD05C0CA01B60197
:201DA0000E9453100BC00115110519F0D8014D938D01AA94BB24AA20C9F602C0BB2031F46F
:201DC0000115110529F0F801108202C0EE24FF24C701A096EEE00C94720BA0E0B0E0E3EF71
:201DE000FEE00C94560B5C016B013A01FC01178216828824EAC0812F90E00E94FE0F892BF9
:201E000021F0C5010E94A30DE0C0153249F4F601F3FC6591F3FE61916F01653269F415E25B
:201E2000C5010E94111097FDDCC0181709F4CDC0B5010E945310DAC06A3219F0162F00E011
:201E400006C0F3FC1591F3FE11916F0101E099240FC00260692D70E080E090E040E20E94DB
:201E6000750D962EF601F3FC1591F3FE11916F01212F20532A3068F301FD03C099249A9469
:201E800003C0992009F4B2C0183621F01C3699F4F6010BC0F601F3FC6591F3FE61916836FA
:201EA00019F06F01162F07C008600460F3FC1591F3FE11916F01112309F498C08EE791E0CA
:201EC000612F70E00E940610892B09F48FC0802F00FF03C0EE24FF2407C0F301E080F18038
:201EE00022E030E0620E731E1E3651F4F5014681578160E070E0C701202F0E94690D65C0BD
:201F0000133691F481FD02C099249394C5010E94111097FD66C0E114F10419F0F70181938D
:201F20007F019A9499F74FC01B3559F4C501692DA70196010E94440E6C01009709F043C028
:201F40003DC0C5010E94A30D97FD4BC01F3659F1103728F4143629F1193639F527C01337B9
:201F600019F0153711F51DC0C5010E941110EC0197FD11C00E94FE0F892B29F0CE01B5014D
:201F80000E94531008C0E114F10419F0F701C1937F019A9449F7E114F104A9F0F70110823A
:201FA00012C0006203C0006101C00064C501692DA701202F0E94BC0D882329F4F501838124
:201FC000807379F413C000FF8394F501F380F601F3FC1591F3FE11916F01112309F00BCFB9
:201FE00005C0882019F42FEF3FEF02C0282D30E0C901CDB7DEB7EEE00C94720B91116DC057
:20200000803219F089508550D0F70895FC010590061621F00020D9F7C00108953197CF014E
:202020000895CF93DF93EC014B8140FF1AC046FF0AC04F7B4B838E819F8101969F838E83BD
:202040008A81282F2BC042FF13C0E881F9818081282F332727FD30952115310529F4406276
:202060004B832FEF3FEF1BC03196F983E88311C0EA85FB85CE0109959C0197FF0AC09B8177
:202080002F5F3F4F11F080E201C080E1892B8B83E8CF8E819F8101969F838E8330E0C90153
:2020A000DF91CF9108959C01FB01838180FF11C086FD0FC09FEF2F3F390759F02283806466
:2020C0008F7D83838681978101979783868330E002C02FEF3FEFC901089599278827089583
:2020E000F894FFCF0D0A496C4D6174746F20436F6D7320426F6F7374205245414459210D19
:20210000002D2D2D2D2D2D2D2D2D2D2D2D2D2D2D2D2D2D2D2D2D2D2D2D2D2D2D2D2D2D2D4C
:202120002D2D2D2D2D2D2D2D2D2D2D2D2D2D2D2D2D2D2D2D2D2D2D2D2D00253034643A20F3
:202140002000736574706F696E74203D202566200A004B70203D202566202C204B69203D77
:202160002025662C204B64203D202566200A0056616463203D2025352E336620560D2020A8
:2021800000566F7574203D2025352E3366200A00766F6C74616C6765206973206E6F7420DE
:2021A00072656C6961626C652021212120002573202575004B70000A3E3E3E3E3E3E3E3E35
:2021C0003E20204B70206973207570646174656420746F20256620203C3C3C3C3C3C3C3CF5
:2021E0003C3C0A004B69000A3E3E3E3E3E3E3E3E3E20204B6920697320757064617465647A
:2022000020746F20256620203C3C3C3C3C3C3C3C3C3C0A004B64000A3E3E3E3E3E3E3E3EC5
:202220003E20204B64206973207570646174656420746F20256620203C3C3C3C3C3C3C3CA0
:202240003C3C0A0046617374000A3E3E3E3E3E3E3E3E3E20205570646174656420746F200C
:202260005374616E646172642046617374204D6F646520203C3C3C3C3C3C3C3C3C3C0073CF
:202280006D617274000A3E3E3E3E3E3E3E3E3E20205570646174656420746F205374616E92
:2022A0006461726420536D617274204D6F646520203C3C3C3C3C3C3C3C3C3C00536C6F777A
:2022C000000A3E3E3E3E3E3E3E3E3E20205570646174656420746F205374616E646172646B
:2022E00020536C6F77204D6F646520203C3C3C3C3C3C3C3C3C3C0056000A3E3E3E3E3E3E08
:202300003E3E3E2020536574706F696E74206973207570646174656420746F20256620207C
:202320003C3C3C3C3C3C3C3C3C3C0A000A3E3E3E3E3E3E3E3E3E3E20204E6F7468696E67AE
:20234000206973207570646174656420203C3C3C3C3C3C3C3C3C3C00000000400AD7A33BE3
:202360006F12833B6F12833B00000001000000000000F80000000000000200000000E40000
:2023800000000000FFFFFFFFFFFFFFFFFFFFFFFFFFFFFFFFFFFFFFFFFFFFFFFFFFFFFFFF59
:2023A000FFFFFFFFFFFFFFFFFFFFFFFFFFFFFFFFFFFFFFFFFFFFFFFFFFFFFFFFFFFFFFFF3D
:2023C000FFFFFFFFFFFFFFFFFFFFFFFFFFFFFFFFFFFFFFFFFFFFFFFFFFFFFFFFFFFFFFFF1D
:2023E000FFFFFFFFFFFFFFFFFFFFFFFFFFFFFFFFFFFFFFFFFFFFFFFFFFFFFFFFFFFFFFFFFD
:202400008C010D571E4FBE01605E7F4FF801808191810E94C40EBE01665D7F4FF801808149
:2024200091810E94C40EDF91CF911F910F910895DF92EF92FF920F931F93DF93CF93CDB72A
:20244000DEB728970FB6F894DEBF0FBECDBF7C01882777FD8095982FF701E05AFE4F208145
:20246000318142815381620F731F841F951F60837183828393832DB73EB7285030400FB641
:20248000F8943EBF0FBE2DBFEDB7FEB731968E010F5F1F4FADB7BEB712961C930E931197F6
:2024A0002CE431E03383228364837583868397830E94A11AF80101900020E9F7602F6E1B9F
:2024C000685FEDB7FEB738960FB6F894FEBF0FBEEDBF09C0D62ED394D8014D918D01C70146
:2024E0000E94F1116D2D6730A8F328960FB6F894DEBF0FBECDBFCF91DF911F910F91FF90B8
:20250000EF90DF90089570E0E42FF0E033979B0153E0359527955A95E1F7EE0FFF1FEE0FFF
:20252000FF1FE80FF91FE20FF31FE259FF4F208130E06770707080E890E002C0959587959A
:202540006A95E2F72823392381E02115310509F480E008956F927F928F929F92AF92BF923F
:20256000CF92DF92EF92FF920F931F93DF93CF93CDB7DEB7C154D0400FB6F894DEBF0FBE56
:20258000CDBF6C018B017A01622E9E012F5F3F4F4232510524F0C6010E94671080C08CE185
:2025A00090E0489FF001499FF00D589FF00D1124E60FF71FE753F94F549180E4F901119252
:2025C0008A95E9F7F4E1EF16F10471F46B3071052CF16131710514F5F601E25AFE4F808108
:2025E0009181009791F50DC081E0E816F104B1F46730710544F4F601E60FF71FEC59FE4F0D
:2026000050816BE025C0CB010A9787309105C8F7F601E60FF71FE65AFE4FF2CF573011F068
:202620005E3079F4C601602F4E2D22965FAF22970E94831222965FAD2297882381F16EE030
:2026400001C06BE05B3121F402C050E0DACF6EE0852F90E0A3E0880F991FAA95E1F78753FD
:202660009C4F503308F06FE0AE01475C5F4F9E012F5F3F4FFC010196E49170E008C0E7FFE3
:2026800004C0D901A70FB11D6C93EE0F7F5FEE23B1F72417350719F0285F3F4FEBCF5801DD
:2026A000F3E0AA0CBB1CFA95E1F74701E3E0880C991CEA95E1F76620E1F000E010E076E12A
:2026C000672E712C7E010894E11CF11C069DC001079D900D169D900D11248C0D9D1DB50170
:2026E000A40197010E94990F0F5F1F4F0530110569F768E0E62EF12CEA0CFB1C8401005F62
:202700001F4FC701B80148E050E028E030E00E94290CC701B8010E94560C80E490E0BE016B
:202720006F5F7F4F40E551E00E94BE0CCF5BDF4F0FB6F894DEBF0FBECDBFCF91DF911F911C
:202740000F91FF90EF90DF90CF90BF90AF909F908F907F906F900895EF92FF920F931F9310
:20276000CF93DF937C0100E010E00FC0C701BE01A80120E00E94AA122196CC31D105B1F7A9
:202780000F5F1F4F0432110519F0C0E0D0E0EECFDF91CF911F910F91FF90EF9008956F922F
:2027A0007F928F929F92AF92BF92CF92DF92EF92FF920F931F93DF93CF930F92CDB7DEB75E
:2027C0008C01FC01ED57FE4FC080D1805C0125E0E22EF5016681778184819581A6010E94A2
:2027E000B710F5016281738180819181A6010E94B710EA9486E190E0A80EB91EEE2049F7F2
:202800006624772496E1E92EF12C8EE5A82E81E0B82EA00EB11EBEE78B2EB1E09B2E800E95
:20282000911E6E9CC0016F9C900D7E9C900D1124F50160817181F40140814150800F911F3B
:202840000E943B0F0894611C711CF5E06F16710441F7EC2CFD2C8824992422C0F501D190FC
:202860005F01C32E0DC0D7FE09C0C8016C2D70E0A40121E039830E94AA123981DD0CC39430
:20288000DD2089F7385F303249F784E090E0E80EF91E0894811C911C94E28916910419F008
:2028A000570130E0DBCF0F90CF91DF911F910F91FF90EF90DF90CF90BF90AF909F908F908F
:2028C0007F906F9008952F923F924F925F926F927F928F929F92AF92BF92CF92DF92EF92A0
:2028E000FF920F931F93DF93CF9300D000D000D0CDB7DEB79E838D83FC01E05AFF4F9080D0
:20290000FC01EF59FF4F8080E92CFF24A82CBB24DC0120E030E00FEF1FE7E0E0F0E0CC24C8
:20292000DD2486E1682E712C18964C91189750E04E195F0919966C91199770E06A197B0910
:20294000669FC001679F900D769F900D1124449FB001459F700D549F700D1124860F971F42
:2029600080179107B4F4269D6001279DD00C369DD00C11244D815E81C40ED51E1C964D91D6
:202980005C911D974230510511F08C0102C08C01F6012F5F3F4F56962430310529F6309782
:2029A00041F08185AD81BE81AE59BF4F90859C93E2C000311105B4F4880CD60119968C9152
:2029C0001997881AED81FE81EE59FF4F990C18968C911897981A9082ED81FE81ED59FF4FBF
:2029E0008082CEC08D819E8161E046E00E948312882331F0ED81FE81EE59FF4F81E00DC000
:202A00008D819E816AE146E00E948312882361F0ED81FE81EE59FF4F8AE18083ED81FE8108
:202A2000ED59FF4F86E0ABC08D819E8161E04AE10E948312882361F0ED81FE81EE59FF4FE3
:202A400081E08083ED81FE81ED59FF4F8AE197C08D819E816AE14AE10E948312882309F44D
:202A600044C0ED81FE81EE59FF4F8AE1808383C0902E93948D819E81692D482D0E948312CB
:202A8000882331F1F201408150E0C8010196481B590BD1012C9130E026193709449FC0019C
:202AA000459F900D549F900D1124229FA001239F500D329F500D1124840F951F8A159B0566
:202AC0003CF4E981FA819082AB81BC818C925C010F5F1F4F0931110559F60894E11CF11CCA
:202AE000BCE1EB16F104E9F427C0EE24FF247FEFA72E7FE7B72E60E6462E512CED81FE8198
:202B00004E0E5F1E51E6252E312C2E0E3F1EEE59FF4FFA83E9834D815E814D595F4F5C83FE
:202B20004B8344E0842E8E0C00E010E034E0632E712C6E0C7F1C9CCF5FEFA5165FE7B506BB
:202B4000F9F4ED81FE81EF59FF4F8081880FD60119969C91891BED81FE81EE59FF4FAD8166
:202B6000BE81A05ABF4F9C91990FD60118962C911897921B9083ED81FE81ED59FF4F808304
:202B800026960FB6F894DEBF0FBECDBFCF91DF911F910F91FF90EF90DF90CF90BF90AF90A8
:202BA0009F908F907F906F905F904F903F902F9008952F923F924F925F926F927F928F9229
:202BC0009F92AF92BF92CF92DF92EF92FF920F931F93CF93DF93EC01FC01E25AFE4F8081B2
:202BE0009181009709F4E5C0CE010E946314FE01E158FE4F808190E081709070DE018E014D
:202C0000085A1F4F70E6A72EB12CAC0EBD1E61E6262E312C2C0E3D1E9E0127593F4FEDEA36
:202C2000F0E144903196C4905EE0D52E4CE0742EF1E08F2E912CE1E16E2E70E5572E1C9690
:202C40004D915C911D9744305105C9F418964C9118974E3069F419964C911997413141F476
:202C60001D961C921E921C971E965C921E9794C01A96DC921A971B966C921B978DC01E96B4
:202C80004C911E97442359F041501E964C931E97442309F081C01D969C928E921C97189616
:202CA0004C91189719966C911997542F5B50573028F4562F5F50533008F474C0009739F4B0
:202CC0001C96ED91FC911D97E230F10591F41F96EC911F97F0E0EE0FFF1FE955FF4E4491C3
:202CE0003196E4911A964C931A971B96EC931B9753C0F501E080F101F0801F965C911F9753
:202D0000523099F0533039F1513009F03FC0F9014081E42FF0E0EE0FFF1FE355FF4E44916F
:202D2000E40E3196E491FE0E31C0F9014081E42FF0E0EE0FFF1FE355FF4E44914695E40E88
:202D40003196E491E695FE0EEE0C4885E41AFF0C4985F41A1BC050E04E19510970E06F1960
:202D60007109669FF001679FF00D769FF00D1124449FB001459F700D549F700D1124E60F0A
:202D8000F71FE034F10514F4FC2CE42C1A96EC921A971B96FC921B975696A017B10709F0AF
:202DA0004ECF07C01A96DC921A971B967C921B97F3CFDF91CF911F910F91FF90EF90DF9090
:202DC000CF90BF90AF909F908F907F906F905F904F903F902F9008950F931F93CF93DF9389
:202DE000EC01062F142F0E948312882309F465C0602F70E0412F50E0FA013397EE0FFF1F0B
:202E0000EE0FFF1FCB01A3E095958795AA95E1F7E80FF91FEC0FFD1FE259FF4F9B01277009
:202E2000307080E890E002C0959587952A95E2F780959081982390838CE190E0489FF001D1
:202E4000499FF00D589FF00D1124E60FF71FE753F94FE491EE3061F5FE01E458FE4F88E5F9
:202E600092E091838083FE01E258FE4F1082DE0144E082E090E01C962D913C911D9721309A
:202E8000310571F41D969C938E931C975196EC915197F0E0E656FF4EE4915196EC93519779
:202EA00041505696442339F7CE0162E370E003C0CE016AE070E00E941812DF91CF911F9122
:202EC0000F9108952F923F924F925F926F927F928F929F92AF92BF92CF92DF92EF92FF9277
:202EE0000F931F93DF93CF93CDB7DEB728970FB6F894DEBF0FBECDBF8C010E942811C8015A
:202F00000E94D915F801E658FE4F80819181009741F1019791838083F801E25AFE4F0097F9
:202F200009F047C080819181009721F082309105C1F42BC081E090E091838083D801AD5729
:202F4000BE4FED91FC911197EF5AFF4F80818F618083ED91FC911197EE5AFF4F80818068F4
:202F6000808378011E830D8366247724FEE54F2EF1E05F2E400E511EE6E12E2E312CC801BB
:202F800084589E4F9A83898319C081E090E091838083F80144E084E090E0248535852330D7
:202FA000310511F495878487415076964423A9F7D8CF808191810097A1F61DC1F201808151
:202FC00091818230910541F4ED81FE81848595858430910509F0A5C0ED81FE812089878508
:202FE000843041F4E981FA81808191810097A1F08AE519C0ED81FE81848595858230910528
:2030000089F08430910551F08185813149F4908596509F3038F404C080E505C084E603C0A6
:203020008BE401C088E2820FED81FE81808B843608F477C08456808BC080D180D582C4826D
:20304000A280B380B782A68282898F5F828B96014501C601877090700097D1F4C501877000
:2030600090700097A9F46189629CA001639C500D729C500D1124400F511FC80170E0CF826E
:2030800038870E947C11ED81FE81818B38852F81ED81FE8181898230B9F0833018F481301A
:2030A000D1F409C0833019F08430A9F408C096012150304010C096012F5F3F4F0CC04501A0
:2030C00008948108910807C045010894811C911C02C020523F4F37FDFCCF02C0205E3040CE
:2030E000203E3105DCF7ED81FE8131832083938282822C5F3F4F73E0359527957A95E1F733
:203100002087A4014C5F5F4F63E0559547956A95E1F741878785843021F4C801622F0E9491
:20312000EC160894611C711C8D819E8146969E838D8395E06916710409F040CF58E5A52E2C
:20314000B12CA00EB11E40E6842E912C800E911E31E6632E712C600E711E23E0422E512C11
:20316000A80142585E4F9EE5292E91E0392E200E311EF801E658FE4FFA83E98328E730E0A4
:2031800084E6C82ED12CF7019085F4018081981759F5F7019185F3018081981729F5F7010A
:2031A0008485958582309105F9F455864486FA0160816F5F6083F10191838083E981FA8197
:2031C00031832083C60102C0880F991F6A95E2F7BC01C8012F8338874B835C830E94181278
:2031E0005C814B8138852F81E6E1F0E0EE0EFF1EEA14FB0441F628960FB6F894DEBF0FBE5C
:20320000CDBFCF91DF911F910F91FF90EF90DF90CF90BF90AF909F908F907F906F905F904D
:203220004F903F902F900895CF92DF92EF92FF920F931F93DF93CF9300D0CDB7DEB76C0122
:20324000FC01EE57FE4F81E08083F601E25AFE4F11821082F601E658FE4F84EB90E0918361
:203260008083F601E258FE4F1082F601E458FE4F1182108220E030E000E010E086E1E82E39
:20328000F12C0E9DC0010F9D900D1E9D900D1124B9016F5B7F4E8C0D9D1D29833A830E9420
:2032A000F50E0F5F1F4F29813A812B5F3F4F0530110539F7F601E158FE4F1082F601E058F9
:2032C000FE4F81E090E091838083F601E05AFE4F1082118212821382C6018C599E4FFC0157
:2032E00088E0DF011D928A95E9F7F601E659FE4F80E38083F601E759FE4F8083F601E45934
:20330000FE4F8EE0DF011D928A95E9F7D601A259BE4F81E08C93D601A359BE4F8C93808303
:20332000960122593F4F80EFD9011D928A95E9F744E550E060E870E02AC0A82FFC01E40F54
:20334000F51FE753F94FE491E73011F0EE3099F4FC01B3E0F595E795BA95E1F7E20FF31FDF
:20336000A7708B0102C015950795AA95E2F7D80100810A2B008301968C319105F1F6445E05
:203380005F4F13E04C39510729F02C5F3F4F80E090E0D3CF80E090E060E070E040EF50E04C
:2033A00020E431E000E010E00E949008C6010E94AC130F900F90CF91DF911F910F91FF90D9
:2033C000EF90DF90CF9008950F931F93DF93CF93CDB7DEB7C059D0400FB6F894DEBF0FBEDE
:2033E000CDBF8C01FC01EE57FE4F8081882319F06038710519F4C8010E941419FE013196F7
:2034000080E9DF011D928A95E9F7D801AD57BE4FED93FC93C8010E946217C8010E94CF138B
:20342000C057DF4F0FB6F894DEBF0FBECDBFCF91DF911F910F910895CF93BC01C5E002C0BD
:2034400060E070E082E991E00E94E419C150C1F7CF9108950E94750B80E090E00E941C1AD1
:20346000FBCF10921403E0E5F1E08081918190838183329681E0E037F807B9F70895629F7C
:20348000D001739FF001829FE00DF11D649FE00DF11D929FF00D839FF00D749FF00D659FDD
:2034A000F00D9927729FB00DE11DF91F639FB00DE11DF91FBD01CF011124089597FB092E6D
:2034C00005260ED057FD04D014D00AD0001C38F450954095309521953F4F4F4F5F4F089509
:2034E000F6F790958095709561957F4F8F4F9F4F0895A1E21A2EAA1BBB1BFD010DC0AA1F79
:20350000BB1FEE1FFF1FA217B307E407F50720F0A21BB30BE40BF50B661F771F881F991F58
:203520001A9469F760957095809590959B01AC01BD01CF010895EE0FFF1F0590F491E02D93
:203540000994AEE0B0E0E7EAFAE10C94591D0D891E8986E08C831A8309838FEF9FE79E83EE
:203560008D839E01275E3F4FCE0101966F89788DA9010E94C41AEF81F885E00FF11F10827E
:203580002E96E4E00C94751DACE0B0E0EAECFAE10C944B1D6C011B018A01FC01178216825A
:2035A000838181FFD1C12E010894411C511CF6019381F10193FD859193FF81911F0188234E
:2035C00009F4BEC1853239F493FD859193FF81911F01853229F490E0B6010E94C11CE7CFF1
:2035E000EE24FF2420E02032B0F48B3269F08C3228F4803251F0833271F40BC08D3239F0F0
:20360000803349F421602CC02260246029C0286027C0206125C027FD2CC0382F30533A3025
:2036200098F426FF08C08E2D880FE82EEE0CEE0CE80EE30E15C08F2D880FF82EFF0CFF0C6A
:20364000F80EF30E20620CC08E3221F426FD78C1206406C08C3611F4206802C0883649F48E
:20366000F10193FD859193FF81911F01882309F0BACF982F9554933018F09052933028F485
:203680000C5F1F4FFFE3F9830DC0833631F0833771F0833509F060C022C0F8018081898378
:2036A0000E5F1F4F420171E0A72EB12C16C062E0662E712C600E711EF8018080918026FF74
:2036C00003C06E2D70E002C06FEF7FEFC4012C870E94B61C5C0183012C852F7717C052E081
:2036E000652E712C600E711EF8018080918026FF03C06E2D70E002C06FEF7FEFC4012C87BA
:203700000E94AB1C5C012C852068830123FD20C008C080E290E0B6012C870E94C11CFA9415
:203720002C858F2D90E0A816B90698F311C0F40127FD859127FF81914F0190E0B6012C8742
:203740000E94C11C2C85F110FA940894A108B108A114B10461F7F1C0843611F0893649F581
:2037600027FF08C0F80160817181828193810C5F1F4F09C0F80160817181882777FD8095D2
:20378000982F0E5F1F4F4FE6B42EB22297FF09C090958095709561957F4F8F4F9F4FF0E896
:2037A000BF2AA2012AE030E00E94ED1C782E741845C0853731F43FEEB32EB2222AE030E0A4
:2037C00025C099EFB92EB2228F36C1F0803720F4883509F0B5C00DC0803721F0883709F008
:2037E000AFC002C020E1B22AB4FE0BC084E0B82A08C0B4FE09C0E6E0BE2A06C028E030E029
:2038000005C020E130E002C020E132E0B7FE08C0F80160817181828193810C5F1F4F07C0FD
:20382000F8016081718180E090E00E5F1F4FA2010E94ED1C782E7418FFE7BF22B6FE0BC04B
:203840002EEFB2227E1438F4B4FE07C0B2FC05C08FEEB82202C0A72C01C0AE2C8B2D90E01E
:20386000B4FE0DC0FE01E70DF11D2081203319F4E9EEBE2209C0A394B2FE06C004C08678D8
:203880009070009709F0A3948B2C9924B3FC14C0B0FE0FC0AF1428F4E72CEF0CEA18AF2C23
:2038A00008C0E72C06C080E290E0B6010E94C11CA394AF14C0F304C0AF1410F4FA1801C054
:2038C000FF2484FE0FC080E390E0B6010E94C11C82FE1FC081FE03C088E590E010C088E7AE
:2038E00090E00DC0C40186789070009791F081FC02C080E201C08BE2B7FC8DE290E0B60198
:203900000E94C11C06C080E390E0B6010E94C11CEA947E14C0F37A94F201E70DF11D808192
:2039200090E0B6010E94C11C7720A9F706C080E290E0B6010E94C11CFA94FF20C1F737CE72
:20394000F6012681378102C02FEF3FEFC9012C96E2E10C94671DFC0105906150704001108C
:20396000D8F7809590958E0F9F1F0895FC016150704001900110D8F7809590958E0F9F1FE2
:2039800008950F931F93CF93DF938C01EB018B8181FF1BC082FF0DC02E813F818C819D819A
:2039A0002817390764F4E881F9810193F983E88306C0E885F985802F0995009731F48E8109
:2039C0009F8101969F838E8302C00FEF1FEFC801DF91CF911F910F910895FA01AA27283085
:2039E00051F1203181F1E8946F936E7F6E5F7F4F8F4F9F4FAF4FB1E03ED0B4E03CD0670F3D
:203A0000781F891F9A1FA11D680F791F8A1F911DA11D6A0F711D811D911DA11D20D009F4CE
:203A200068943F912AE0269F11243019305D3193DEF6CF010895462F4770405D4193B3E0AB
:203A40000FD0C9F7F6CF462F4F70405D4A3318F0495D31FD4052419302D0A9F7EACFB4E0B3
:203A6000A6959795879577956795BA95C9F700976105710508959B01AC010A2E0694579595
:203A8000479537952795BA95C9F7620F731F841F951FA01D08952F923F924F925F926F929A
:203AA0007F928F929F92AF92BF92CF92DF92EF92FF920F931F93CF93DF93CDB7DEB7CA1B07
:203AC000DB0B0FB6F894DEBF0FBECDBF09942A88398848885F846E847D848C849B84AA84A6
:203AE000B984C884DF80EE80FD800C811B81AA81B981CE0FD11D0FB6F894DEBF0FBECDBF53
:203B0000ED010895F894FFCF01002608001000353E0040004A00001B000A82270000B50001
:203B200001000000000055001F1A180A0F064587320A0702070500000025270510093A7886
:203B40004D05180D383A1F00000000EF000000013F000700256C640000001F00BB54DFFD28
:203B60000000E0FFA8FADF550000FF07000004F9E007A8AADFADFBFE0000000100000000CE
:203B80000000600E000000000002000000004B0E00000000FFFFFFFFFFFFFFFFFFFFFFFF68
:203BA000FFFFFFFFFFFFFFFFFFFFFFFFFFFFFFFFFFFFFFFFFFFFFFFFFFFFFFFFFFFFFFFF25
:203BC000FFFFFFFFFFFFFFFFFFFFFFFFFFFFFFFFFFFFFFFFFFFFFFFFFFFFFFFFFFFFFFFF05
:203BE000FFFFFFFFFFFFFFFFFFFFFFFFFFFFFFFFFFFFFFFFFFFFFFFFFFFFFFFFFFFFFFFFE5
:203C0000FFFFFFFFFFFFFFFFFFFFFFFFFFFFFFFFFFFFFFFFFFFFFFFFFFFFFFFFFFFFFFFFC4
:20F8000066C000007FC000007DC0000095C0000079C0000077C0000075C0000073C0000019
:20F8200071C000006FC000006DC000006BC0000069C0000067C0000065C0000063C0000078
:20F8400061C000005FC000005DC000005BC0000059C0000057C0000055C0000053C00000D8
:20F8600051C000004FC000004DC000004BC0000049C0000047C0000045C000000403090427
:20F880001C037700770077002E00660069007300630068006C002E00640065000E035500E0
:20F8A0005300420061007300700012011001FF000008C016DC050201010200010902120069
:20F8C000010100803209040000000000000011241FBECFEFD0E1DEBFCDBF11E0A0E0B1E0BB
:20F8E000EEEFFFEF02C005900D92A230B107D9F711E0A2E0B1E001C01D92A733B107E1F70F
:20F9000048D17BC37DCFA82FB92F80E090E041E050EA609530E009C02D91822797958795DD
:20F9200010F084279527305EC8F36F5FA8F30895EADF8D939D930895CF93CFB7CF93C395B9
:20F940001B9BE9F71B9B09C01B9B07C01B9B05C01B9B03C01B9B01C0A1C0DF93C0911A016B
:20F96000DD27CF5DDE4F1B9B02C0DF91EBCF2F930F931F9303B12FEF03FB20F94F933F93D5
:20F9800013B14FEF012703FB21F93BE031C04E7F012F13B1216028C0102F4D7F2260000062
:20F9A00003B129C04B7F2460012F000013B12BC013B1477F28602AC04F7E03B120612CC093
:20F9C0004F7D13B120622FC04F7B03B1206432C0422703B149934FEF0000102713FB20F99D
:20F9E00013B11C70C9F1297F91F2012703FB21F903B1237F89F2315058F1102713FB22F997
:20FA000013B1277E79F2012703FB23F92F7C81F203B1102713FB24F92F7971F200C013B10D
:20FA2000012703FB25F92F7359F200C003B1102713FB26F9223040F200C013B1012703FB8F
:20FA400027F9243028F64F77206813B10000F9CF14E01CBB002717C03B503195C31BD04032
:20FA600014E01CBB0881033CE9F00B34D9F0209118011981110F1213EDCF093641F10D32FD
:20FA800011F0013E39F700931F013F914F911F910F912F91DF91CCB3C2FD51CFCF91CFBFC7
:20FAA000CF91189520911F01222379F310911D01112311F5343012F130931D0120931901A9
:20FAC00010911A013BE0311B30931A0117C000911D0101308CF40AE53091000134FD10C03C
:20FAE00000930001CDE0D1E00FC02795A8F45150A9F4220F0000F9CF4AE503C042ED01C0D4
:20FB0000432FC4E1D0E032E014B11C602B9A14B905B120E41CE05F93012756E005B92795B9
:20FB200020F4515021F4220FF9CF012756E000003B5A05B9D0F2279528F4515029F4220FC8
:20FB40000000F9CF012756E0279505B920F4515021F4220FF9CF012756E02991332305B916
:20FB600021F6037F10911E01110FC651D04005B911F01093180114E01CBB086014B1137FE0
:20FB8000402F437F5F9100C000C005B914B945B97CCF84B78A7009F417C214BE88E10FB6E5
:20FBA000F89480936000109260000FBE81E085BF82E085BF80916900806380936900EA9ACF
:20FBC000239A20E004C088EB9BE00197F1F72150D1F723987894279A2F9ACC24DD2490919A
:20FBE0001D01935097FD5DC180911A010CE010E0081B11090F5D1E4F809119018D3209F051
:20FC0000E1C0983009F04BC183EC80930D018AE58093000110920601D8013C91832F80766C
:20FC200011962C91882309F458C082E091E090931C0180931B01233059F5F894D8011296B0
:20FC4000EC911297E03351F41496EC91EE0FE670F0E081E280935700E49115C0E03521F09F
:20FC6000E83511F0E0E00FC0EF70E695E695E695D80113968C9186958695E82BF0E089E0E6
:20FC800080935700E4917894E093050194E08FC0253011F491E08BC0822F84508630B0F448
:20FCA000F801828193819093090180930801293091F0968190930A018581827080930B01B5
:20FCC00020930C0137FD6EC02FEF6DC0223019F481E08093070190E06AC0D80112968C91A4
:20FCE00010921601222331F41092170126E131E092E053C0253019F480931E014BC0263095
:20FD0000C9F5F8018381813019F48AEA98EF04C0823041F48CEB98EF90931C0180931B0157
:20FD200092E124C0833009F5D80112968C91882341F48CE798EF90931C0180931B0194E060
:20FD400015C0813041F480E898EF90931C0180931B019CE10BC0823041F48CE998EF90933C
:20FD60001C0180931B019EE001C090E080E4809306011DC0283019F420E231E009C0293093
:20FD800019F48093200106C02A3021F426E131E091E003C026E131E090E030931C01209386
:20FDA0001B0105C0292F80E88093060108C0F8018781882319F42681291708F0292F20931D
:20FDC00001016DC08091060187FF69C080910A01F92E891708F4F82E8F1980930A01EE2450
:20FDE000882311F4EE24E39480910C01873010F430E04EC0E8010CC08091080190910901D9
:20FE00000196909309018093080101976991E7D09E01201B2F1580F33EC0E0910801F0912F
:20FE20000901EE2349F4F89483E080935700E895789407B600FCFDCF3E5FF894D8018D91E3
:20FE40009D918D0121E00C0120935700E89511247894CF01029690930901809308018823B4
:20FE600041F0EE20A9F03F1598F080910B01882379F0F89485E080935700E895789407B6FC
:20FE800000FCFDCFF89481E180935700E89578943F1508F4C2CFEE2011F010920101109283
:20FEA0001D018091000184FF71C0809101018F3F09F46CC0182F893008F018E0811B8093B5
:20FEC000010180910D0198E8892780930D01112309F44AC08091060187FF2AC080910A01D1
:20FEE000811708F4182F811B80930A01CEE0D1E017C080910C01E0910801F091090187305D
:20FF000018F0CF0164D001C084918883219680910801909109010196909309018093080118
:20FF2000812F90E0825F9E4FC817D90711F71AC0E0911B01F0911C0186FF09C0912FAEE06B
:20FF4000B1E084918D9331969150D9F707C0912FAEE0B1E081918D939150E1F7F0931C0132
:20FF6000E0931B01193060F48EE091E0612FE0DC612F6C5F6C3041F08FEF8093010104C0AB
:20FF80008FEF809301016EE16093000194E183B18C7031F49150D9F710921E011092180194
:20FFA00080910701882309F41ACECA9409F017CEDA9409F014CE2F982798F8941DBA109288
:20FFC000690081E085BF15BE0C9400000895F999FECF92BD81BDF89A992780B50895262F9E
:20FFE000F999FECF1FBA92BD81BD20BD0FB6F894FA9AF99A0FBE01960895F894FFCF5AFF33
:020000040001F9
:00000001FF
