:100000000C944A000C9467000C9467000C946700F1
:100010000C9467000C94FA010C9467000C94670030
:100020000C9467000C9467000C9467000C946700B4
:100030000C9467000C9467000C9467000C946700A4
:100040000C9467000C9467000C9467000C94670094
:100050000C946B000C9467000C9467000C94670080
:100060000C9467000C9467000C9467000C94670074
:100070000C9467000C9467000C946700D680018292
:10008000F4A402C62D94ABC281CAF7C4709800C80C
:1000900000E0818211241FBECFEFD0E1DEBFCDBFD3
:1000A00012E0A0E0B1E0EAEDFAE002C005900D92A6
:1000B000A635B107D9F712E0A6E5B2E001C01D925E
:1000C000AF3CB107E1F70E945C010C946B050C9406
:1000D000000080E008951F920F920FB60F92112436
:1000E0008F939F9381E090E00197F1F79F918F911B
:1000F0000F900FBE0F901F9018950F931F93809134
:10010000C50290E023E230E0829FB001839F700D32
:10011000929F700D1124FB01E658FD4F81A18130A3
:10012000E1F44081842F81508436B8F404EA11E070
:100130009B0123583D4FC801B90150E00E94CF04F4
:100140000E94910380E091E00E941D04C8010E947A
:100150001D0483E191E00E941D041F910F910895F9
:10016000CF93DF93EC0190E001C09F5FFE01E90FA8
:10017000F11D80818823C9F7892F6EEEAE010E94A0
:100180002A040E94580386E191E00E941D04CE01DA
:100190000E941D0482E391E00E941D04DF91CF9133
:1001A00008951F93182F0E94150480915602E82F7E
:1001B000F0E0E05CFE4F10831D3039F410925602DF
:1001C00080E491E00E94B00008C0843620F48F5F84
:1001D0008093560202C0109256021F910895CF924A
:1001E000DF92EF92FF920F931F93DF93CF930F92C3
:1001F000CDB7DEB77C01062F0E94BF0464E670E035
:100200000E94470410E008171907CCF010E001C065
:100210001F5FF701E10FF11D80818823C9F700E01E
:100220006E010894C11CD11C08C0F70181917F01A7
:100230008983C6010E94B0000F5F0117B0F30F90D1
:10024000CF91DF911F910F91FF90EF90DF90CF90B2
:100250000895CF92DF92EF92FF920F931F93DF9357
:10026000CF930F92CDB7DEB79C0100E001C00F5FC6
:10027000F901E00FF11D80818823C9F7790110E0B1
:100280006E010894C11CD11C08C0F70181917F0147
:100290008983C6010E94B0001F5F1017B0F30F9052
:1002A000CF91DF911F910F91FF90EF90DF90CF9052
:1002B00008950E94B0000895CF93DF930E94FE033B
:1002C00088EE93E02CE231E0F9013197F1F70197E4
:1002D000D9F70E94A70388EE93E02CE231E0F90100
:1002E0003197F1F70197D9F77894CCE2D1E087E321
:1002F00091E00E94B00088E893E1FE013197F1F7A8
:100300000197D9F7F4CF2C989EBD0DB407FEFDCF11
:100310008EBD0DB407FEFDCF2C9A08952C989EBD7E
:100320000DB407FEFDCF3EB58EBD0DB407FEFDCF6B
:100330002EB5932F80E02C9A30E0282B392BC90161
:1003400008950F931F930CE610E0F80120812D7F94
:1003500020830E948301F8018081826080831F9145
:100360000F910895CF93DF93A82FB0E0FD0183E0B4
:10037000EE0FFF1F8A95E1F7E85FFD4F77836683F5
:10038000FD0153E0EE0FFF1F5A95E1F7E45FFD4FCB
:10039000C081D181209719F440E050E010C08881DD
:1003A0009981FD0143E0EE0FFF1F4A95E1F7E65FFB
:1003B000FD4F40815181409550954823592333E0AA
:1003C000AA0FBB1F3A95E1F7FD01E65FFD4F808163
:1003D000918186239723A85FBD4F2D913C91822B5D
:1003E000932B842B952B998388830E94A101DF9105
:1003F000CF91089578941F920F920FB60F92112407
:100400009F92AF92BF92CF92DF92EF92FF920F93A3
:100410001F932F933F934F935F936F937F938F938C
:100420009F93AF93BF93CF93DF93EF93FF9319996C
:10043000FAC080916C008D7F80936C001091CE0289
:1004400052E0952EC3E2D0E041E0E42EF12CDD2411
:10045000D39431E2B32E23E0A22E94E0C92E9BBAAE
:100460002C981EBC0DB407FEFDCF2C9A0EB507FFCD
:10047000D0C09091C002923039F1923018F0933090
:1004800081F51FC08091C302833011F020E004C0C9
:1004900020E01F3F09F021E08091C40290E08C9F92
:1004A000F0018D9FF00D9C9FF00D1124E658FD4F3B
:1004B00081A192A1892BA9F4222399F4D092C002A0
:1004C00012C0C092C0020FC0A092C0022091C3020D
:1004D0008091C202281738F4243228F49093C00285
:1004E00002C01092C0028091C002823009F45FC045
:1004F000833020F4813009F07BC007C0833009F4D9
:1005000066C0843009F074C067C080E090EB0E9440
:100510008E01382F18272091C3022223D9F482326A
:1005200070F08091C40290E08C9FF0018D9FF00DDF
:100530009C9FF00D1124E658FD4FB0821AC08091A7
:10054000C40290E08C9FF0018D9FF00D9C9FF00DF8
:1005500011240CC08091C40290E08C9FF0018D9F0B
:10056000F00D9C9FF00D1124E20FF11DE658FD4F98
:1005700030832F5F2093C3024091C402842F90E008
:100580008C9FF0018D9FF00D9C9FF00D1124E6587B
:10059000FD4F8081992787FD909530E02817390716
:1005A0003CF1F2A2E1A24D254093C4021FC0E091AC
:1005B000C302F0E0E95AFD4F808190E0986B0E9401
:1005C00083018091C3028F5F8093C30211C08AEAC6
:1005D00098EB0E9483010CC01092C10281E892E85E
:1005E0000E9483018AEA98EB0E9483011092C00264
:1005F0008091C002882369F41092C3021092C20253
:1006000081E89AEC0E94830183E89AEC0E948301BE
:1006100010E0047909F023CF1093CE0280916C0092
:10062000826080936C00FF91EF91DF91CF91BF9139
:10063000AF919F918F917F916F915F914F913F917A
:100640002F911F910F91FF90EF90DF90CF90BF906F
:10065000AF909F900F900FBE0F901F9018950F9323
:100660001F930CE610E0F80180818D7F808381E08C
:1006700092E80E948301809159028B5F8093C202AD
:100680001092C30282E08093C0028AEA98EB0E9433
:1006900083018AEA98EB0E94830181E292E80E943A
:1006A0008301F8018081826080831F910F910895FA
:1006B0008091C002882301F580916C008D7F80932A
:1006C0006C0080E090E00E948E0120916C0022601E
:1006D00020936C0090FF02C088EC05C0809150020E
:1006E000882321F081508093500208958091C102A7
:1006F000813011F40E942F030895982F8091C10238
:10070000882311F083E008956093590290935A0270
:100710006927609560935B0281E08093C10280E865
:1007200008954091C502242F30E083E290E0289F95
:10073000F001299FF00D389FF00D1124E658FD4F70
:1007400012A211A281E048274093C5020895CF93D9
:10075000DF932C9A249A259A279A2C9A249A2698E1
:1007600081E58CBD8DE28093570284ED8093580221
:100770001092C4021092C5028DE294E99093C702D0
:100780008093C60287EF94EC9093C9028093C802CD
:1007900080E798E99093CB028093CA0286ED90E8B7
:1007A0009093CD028093CC02C0E0D0E0FE01EE0F2A
:1007B000FF1FE458FF4F859194910E948301219679
:1007C000CC30D10599F780916800826080936800F1
:1007D00080E090E00E948E0182E08BBB81E89AEC81
:1007E0000E94830183E89AEC0E94830180916C004F
:1007F000826080936C00DF91CF9108951092C500C4
:100800008DE48093C400E1ECF0E088E1808386E031
:100810008093C20080818068808308958091C000A9
:1008200087FFFCCF8091C6000895982F8091C0006B
:1008300085FFFCCF9093C6000895FC0107C080910E
:10084000C00085FFFCCF9093C6003196908199231C
:10085000B1F708950F931F93182F062F8F3110F0C3
:1008600082E012C08091C102882311F083E00CC0A5
:100870002CE532E0C901BA01412F50E00E94CF04BB
:10088000802F612F0E947D031F910F91089597FB88
:10089000092E07260AD077FD04D00CD006D0002000
:1008A0001AF4709561957F4F0895F6F790958195AC
:1008B0009F4F0895AA1BBB1B51E107C0AA1FBB1F76
:1008C000A617B70710F0A61BB70B881F991F5A95DC
:1008D000A9F780959095BC01CD010895A0E0B0E006
:1008E000E4E7F4E00C941A05EC01A880B980CA8012
:1008F000DB80A114B104C104D10441F484E2A82E28
:1009000089EDB82E8BE5C82E87E0D82EC601B5013B
:100910002DE133EF41E050E00E94F70427EA31E493
:1009200040E050E00E94D8047B018C01C601B50173
:100930002DE133EF41E050E00E94F704CA01B90114
:100940002CEE34EF4FEF5FEF0E94D8046E0D7F1D49
:10095000801F911F97FF04C06150704080409048F5
:10096000688379838A839B839B013F77C901CDB7D5
:10097000DEB7EAE00C9436050E946E04089581E526
:1009800092E00E946E040895A0E0B0E080935102CE
:1009900090935202A0935302B09354020895FB0126
:1009A000DC0102C001900D9241505040D8F70895EB
:1009B000629FD001739FF001829FE00DF11D649F43
:1009C000E00DF11D929FF00D839FF00D749FF00DCF
:1009D000659FF00D9927729FB00DE11DF91F639F70
:1009E000B00DE11DF91FBD01CF011124089597FB42
:1009F000092E05260ED057FD04D04BD00AD0001C7E
:100A000038F450954095309521953F4F4F4F5F4FAB
:100A10000895F6F790958095709561957F4F8F4F6B
:100A20009F4F08952F923F924F925F926F927F92C5
:100A30008F929F92AF92BF92CF92DF92EF92FF92EE
:100A40000F931F93CF93DF93CDB7DEB7CA1BDB0B9A
:100A50000FB6F894DEBF0FBECDBF09942A8839883F
:100A600048885F846E847D848C849B84AA84B98446
:100A7000C884DF80EE80FD800C811B81AA81B98152
:100A8000CE0FD11D0FB6F894DEBF0FBECDBFED0166
:100A90000895A1E21A2EAA1BBB1BFD010DC0AA1FBF
:100AA000BB1FEE1FFF1FA217B307E407F50720F0D7
:100AB000A21BB30BE40BF50B661F771F881F991F52
:100AC0001A9469F760957095809590959B01AC019B
:0A0AD000BD01CF010895F894FFCF97
:100ADA006D657373616765207265636569766564C0
:100AEA003A20000A0D000D0A5B695D206D6573737B
:100AFA00616765207472616E736D69747465643AB6
:100B0A0020000D0A0D0A005445414D54414E4B0038
:100B1A0000000000000000000000000000000000CB
:100B2A0000000000000000000000000000000000BB
:100B3A0000000000000000000000000000000000AB
:100B4A00000000000000000000000000000000009B
:100B5A00000000000000000000000000000000008B
:100B6A00000000000000000000000000000000007B
:100B7A00000000000000000000000000000000006B
:100B8A00000000000000000000000000000000005B
:100B9A00000000000000000000000000000000004B
:100BAA00000000000000000000000000000000003B
:100BBA00000000000000000000000000000000002B
:100BCA00000000000000000000000000000000001B
:100BDA00000000000000000000803000CC0210007D
:100BEA0000800F00CC02060000A0FF0F0000F404F2
:100BFA0000C6FF000000020000980700CA020000B9
:100C0A000098F000CA02700000901800C60208009E
:100C1A0000900700C60205000090E000C60220000E
:060C2A00100100000000B3
:00000001FF
