:100000000C944A000C9467000C9467000C946700F1
:100010000C9467000C94A3010C9467000C94670087
:100020000C9467000C9467000C9467000C946700B4
:100030000C9467000C9467000C9467000C946700A4
:100040000C9467000C9467000C9467000C94670094
:100050000C9402010C9467000C9467000C946700E8
:100060000C9467000C9467000C9467000C94670074
:100070000C9467000C9467000C946700D680018292
:10008000F4A402C62D94ABC281CAF7C4709800C80C
:1000900000E0818211241FBECFEFD0E1DEBFCDBFD3
:1000A00012E0A0E0B1E0E6EFF7E002C005900D92AB
:1000B000A834B107D9F712E0A8E4B2E001C01D925C
:1000C000A13CB107E1F70E949C000C94F9030C9449
:1000D00000000F931F938091B70290E023E230E07D
:1000E000829FB001839F700D929F700D1124FB01C0
:1000F000E459FD4F81A18130E1F44081842F81508A
:100100008436B8F40BE911E09B0121593D4FC80139
:10011000B90150E00E94F0030E943A0380E091E0B0
:100120000E94C603C8010E94C60383E191E00E94B9
:10013000C6031F910F910895CF93DF930E94A703E9
:1001400088EE93E02CE231E0F9013197F1F7019765
:10015000D9F70E94500388EE93E02CE231E0F901D8
:100160003197F1F70197D9F77894CCE2D1E00E946A
:1001700069000E94010384EC99E0FE013197F1F7D8
:100180000197D9F7F4CFCF93DF93EC0190E001C052
:100190009F5FFE01E90FF11D80818823C9F7892F38
:1001A0006EEEAE010E94D3030E94010386E191E04E
:1001B0000E94C603CE010E94C60382E391E00E9422
:1001C000C603DF91CF9108951F93182F0E94BE039D
:1001D00080914802E82FF0E0E95CFE4F10831D306B
:1001E00039F41092480287E391E00E94C30008C0EE
:1001F000843620F48F5F8093480202C01092480238
:100200001F9108951F920F920FB60F9211242F93F2
:100210003F934F935F936F937F938F939F93AF938E
:10022000BF93EF93FF938091C6000E94E40081E0AA
:1002300090E00197F1F7FF91EF91BF91AF919F91FE
:100240008F917F916F915F914F913F912F910F907F
:100250000FBE0F901F9018952C989EBD0DB407FEF1
:10026000FDCF8EBD0DB407FEFDCF2C9A08952C98BE
:100270009EBD0DB407FEFDCF3EB58EBD0DB407FE8D
:10028000FDCF2EB5932F80E02C9A30E0282B392B10
:10029000C90108950F931F930CE610E0F801208127
:1002A0002D7F20830E942C01F80180818260808351
:1002B0001F910F910895CF93DF93A82FB0E0FD0118
:1002C00083E0EE0FFF1F8A95E1F7E150FE4F778341
:1002D0006683FD0153E0EE0FFF1F5A95E1F7ED5FD6
:1002E000FD4FC081D181209719F440E050E010C04B
:1002F00088819981FD0143E0EE0FFF1F4A95E1F7E8
:10030000EF5FFD4F4081518140955095482359231F
:1003100033E0AA0FBB1F3A95E1F7FD01EF5FFD4FF8
:100320008081918186239723A150BE4F2D913C91CE
:10033000822B932B842B952B998388830E944A01CF
:10034000DF91CF91089578941F920F920FB60F927C
:1003500011249F92AF92BF92CF92DF92EF92FF92C1
:100360000F931F932F933F934F935F936F937F93BD
:100370008F939F93AF93BF93CF93DF93EF93FF93AD
:100380001999FAC080916C008D7F80936C00109158
:10039000C00252E0952EC3E2D0E041E0E42EF12C01
:1003A000DD24D39431E2B32E23E0A22E94E0C92EB3
:1003B0009BBA2C981EBC0DB407FEFDCF2C9A0EB52F
:1003C00007FFD0C09091B202923039F1923018F00C
:1003D000933081F51FC08091B502833011F020E089
:1003E00004C020E01F3F09F021E08091B60290E0B8
:1003F0008C9FF0018D9FF00D9C9FF00D1124E4590E
:10040000FD4F81A192A1892BA9F4222399F4D092C6
:10041000B20212C0C092B2020FC0A092B2022091EA
:10042000B5028091B402281738F4243228F490934E
:10043000B20202C01092B2028091B202823009F47C
:100440005FC0833020F4813009F07BC007C0833067
:1004500009F466C0843009F074C067C080E090EB96
:100460000E943701382F18272091B5022223D9F492
:10047000823270F08091B60290E08C9FF0018D9FE7
:10048000F00D9C9FF00D1124E459FD4FB0821AC06D
:100490008091B60290E08C9FF0018D9FF00D9C9FA3
:1004A000F00D11240CC08091B60290E08C9FF001F9
:1004B0008D9FF00D9C9FF00D1124E20FF11DE4596A
:1004C000FD4F30832F5F2093B5024091B602842FF9
:1004D00090E08C9FF0018D9FF00D9C9FF00D1124FA
:1004E000E459FD4F8081992787FD909530E02817CA
:1004F00039073CF1F2A2E1A24D254093B6021FC09C
:10050000E091B502F0E0E75BFD4F808190E0986BF1
:100510000E942C018091B5028F5F8093B50211C0BB
:100520008AEA98EB0E942C010CC01092B30281E879
:1005300092E80E942C018AEA98EB0E942C0110920A
:10054000B2028091B202882369F41092B50210922F
:10055000B40281E89AEC0E942C0183E89AEC0E9494
:100560002C0110E0047909F023CF1093C002809190
:100570006C00826080936C00FF91EF91DF91CF91CE
:10058000BF91AF919F918F917F916F915F914F91AB
:100590003F912F911F910F91FF90EF90DF90CF909F
:1005A000BF90AF909F900F900FBE0F901F90189527
:1005B0000F931F930CE610E0F80180818D7F8083FC
:1005C00081E092E80E942C0180914B028B5F809326
:1005D000B4021092B50282E08093B2028AEA98EBEC
:1005E0000E942C018AEA98EB0E942C0181E292E899
:1005F0000E942C01F8018081826080831F910F91FD
:1006000008958091B202882301F580916C008D7F5E
:1006100080936C0080E090E00E94370120916C0094
:10062000226020936C0090FF02C088EC05C080918E
:100630004702882321F081508093470208958091DA
:10064000B302813011F40E94D8020895982F80914E
:10065000B302882311F083E0089560934B029093D6
:100660004C026927609560934D0281E08093B3024C
:1006700080E808954091B702242F30E083E290E0B3
:10068000289FF001299FF00D389FF00D1124E459A7
:10069000FD4F12A211A281E048274093B7020895AE
:1006A000CF93DF932C9A249A259A279A2C9A249AEE
:1006B000269881E58CBD8DE28093490284ED80937C
:1006C0004A021092B6021092B7028DE294E990931A
:1006D000B9028093B80287EF94EC9093BB028093A9
:1006E000BA0280E798E99093BD028093BC0286ED40
:1006F00090E89093BF028093BE02C0E0D0E0FE017C
:10070000EE0FFF1FE458FF4F859194910E942C013A
:100710002196CC30D10599F7809168008260809352
:10072000680080E090E00E94370182E08BBB81E8A6
:100730009AEC0E942C0183E89AEC0E942C01809193
:100740006C00826080936C00DF91CF9108951092CD
:10075000C5008DE48093C400E1ECF0E088E1808383
:1007600086E08093C20080818068808308958091B4
:10077000C00087FFFCCF8091C6000895982F80911C
:10078000C00085FFFCCF9093C6000895FC0107C010
:100790008091C00085FFFCCF9093C6003196908178
:1007A0009923B1F708950F931F93182F062F8F31B8
:1007B00010F082E012C08091B302882311F083E030
:1007C0000CC02EE432E0C901BA01412F50E00E9472
:1007D000F003802F612F0E9426031F910F9108952F
:1007E000FB01DC0102C001900D9241505040D8F74E
:0607F0000895F894FFCF0C
:1007F6006D657373616765207265636569766564A7
:100806003A20000A0D000D0A5B695D206D65737361
:10081600616765207472616E736D69747465643A9C
:1008260020000D0A0D0A0000000000000000000074
:1008360000000000000000000000000000000000B2
:1008460000000000000000000000000000000000A2
:100856000000000000000000000000000000000092
:100866000000000000000000000000000000000082
:100876000000000000000000000000000000000072
:100886000000000000000000000000000000000062
:100896000000000000000000000000000000000052
:1008A6000000000000000000000000000000000042
:1008B6000000000000000000000000000000000032
:1008C6000000000000000000000000000000000022
:1008D6000000000000000000000000000000000012
:1008E6000000000000000000000000000000000002
:1008F600803000BE02100000800F00BE020600001D
:10090600A0FF0F0000F40400C6FF00000002000074
:10091600980700BC0200000098F000BC02700000BE
:10092600901800B802080000900700B80205000001
:0809360090E000B8022000105F
:00000001FF
